{
  "contractName": "TodoList",
  "abi": [
    {
      "inputs": [],
      "stateMutability": "nonpayable",
      "type": "constructor"
    },
    {
      "anonymous": false,
      "inputs": [
        {
          "indexed": false,
          "internalType": "uint256",
          "name": "id",
          "type": "uint256"
        },
        {
          "indexed": false,
          "internalType": "string",
          "name": "description",
          "type": "string"
        },
        {
          "indexed": false,
          "internalType": "bool",
          "name": "completed",
          "type": "bool"
        }
      ],
      "name": "TaskCreated",
      "type": "event"
    },
    {
      "inputs": [],
      "name": "numberOfTasks",
      "outputs": [
        {
          "internalType": "uint256",
          "name": "",
          "type": "uint256"
        }
      ],
      "stateMutability": "view",
      "type": "function",
      "constant": true
    },
    {
      "inputs": [
        {
          "internalType": "uint256",
          "name": "",
          "type": "uint256"
        }
      ],
      "name": "tasks",
      "outputs": [
        {
          "internalType": "uint256",
          "name": "id",
          "type": "uint256"
        },
        {
          "internalType": "string",
          "name": "description",
          "type": "string"
        },
        {
          "internalType": "bool",
          "name": "completed",
          "type": "bool"
        }
      ],
      "stateMutability": "view",
      "type": "function",
      "constant": true
    },
    {
      "inputs": [
        {
          "internalType": "string",
          "name": "_description",
          "type": "string"
        }
      ],
      "name": "addTask",
      "outputs": [],
      "stateMutability": "nonpayable",
      "type": "function"
    },
    {
      "inputs": [
        {
          "internalType": "uint256",
          "name": "_id",
          "type": "uint256"
        }
      ],
      "name": "toggleTask",
      "outputs": [],
      "stateMutability": "nonpayable",
      "type": "function"
    },
    {
      "inputs": [
        {
          "internalType": "uint256",
          "name": "_id",
          "type": "uint256"
        }
      ],
      "name": "deleteTask",
      "outputs": [],
      "stateMutability": "nonpayable",
      "type": "function"
    }
  ],
  "bytecode": "0x6080604052600080553480156200001557600080fd5b506200005c6040518060400160405280600881526020017f427579206d696c6b0000000000000000000000000000000000000000000000008152506200006260201b60201c565b620003f0565b600080815480929190620000769062000227565b919050555060405180606001604052806000548152602001828152602001600015158152506001600080548152602001908152602001600020600082015181600001556020820151816001019080519060200190620000d79291906200013e565b5060408201518160020160006101000a81548160ff0219169083151502179055509050507f05d0fb833127fc08168556d0e7ca9554fc3f6bc843b3b7d2bf1c35aea6bab660600054826000604051620001339392919062000347565b60405180910390a150565b8280546200014c90620003ba565b90600052602060002090601f016020900481019282620001705760008555620001bc565b82601f106200018b57805160ff1916838001178555620001bc565b82800160010185558215620001bc579182015b82811115620001bb5782518255916020019190600101906200019e565b5b509050620001cb9190620001cf565b5090565b5b80821115620001ea576000816000905550600101620001d0565b5090565b7f4e487b7100000000000000000000000000000000000000000000000000000000600052601160045260246000fd5b6000819050919050565b600062000234826200021d565b91507fffffffffffffffffffffffffffffffffffffffffffffffffffffffffffffffff8214156200026a5762000269620001ee565b5b600182019050919050565b62000280816200021d565b82525050565b600081519050919050565b600082825260208201905092915050565b60005b83811015620002c2578082015181840152602081019050620002a5565b83811115620002d2576000848401525b50505050565b6000601f19601f8301169050919050565b6000620002f68262000286565b62000302818562000291565b935062000314818560208601620002a2565b6200031f81620002d8565b840191505092915050565b60008115159050919050565b62000341816200032a565b82525050565b60006060820190506200035e600083018662000275565b8181036020830152620003728185620002e9565b905062000383604083018462000336565b949350505050565b7f4e487b7100000000000000000000000000000000000000000000000000000000600052602260045260246000fd5b60006002820490506001821680620003d357607f821691505b60208210811415620003ea57620003e96200038b565b5b50919050565b61083880620004006000396000f3fe608060405234801561001057600080fd5b50600436106100575760003560e01c8063560f31921461005c578063613137a414610078578063672385621461009457806369536eef146100b05780638d977672146100ce575b600080fd5b61007660048036038101906100719190610462565b610100565b005b610092600480360381019061008d9190610462565b610145565b005b6100ae60048036038101906100a991906105d5565b61019a565b005b6100b8610270565b6040516100c5919061062d565b60405180910390f35b6100e860048036038101906100e39190610462565b610276565b6040516100f7939291906106eb565b60405180910390f35b6001600082815260200190815260200160002060008082016000905560018201600061012c9190610335565b6002820160006101000a81549060ff0219169055505050565b6001600082815260200190815260200160002060020160009054906101000a900460ff16156001600083815260200190815260200160002060020160006101000a81548160ff02191690831515021790555050565b6000808154809291906101ac90610758565b91905055506040518060600160405280600054815260200182815260200160001515815250600160008054815260200190815260200160002060008201518160000155602082015181600101908051906020019061020b929190610375565b5060408201518160020160006101000a81548160ff0219169083151502179055509050507f05d0fb833127fc08168556d0e7ca9554fc3f6bc843b3b7d2bf1c35aea6bab660600054826000604051610265939291906106eb565b60405180910390a150565b60005481565b600160205280600052604060002060009150905080600001549080600101805461029f906107d0565b80601f01602080910402602001604051908101604052809291908181526020018280546102cb906107d0565b80156103185780601f106102ed57610100808354040283529160200191610318565b820191906000526020600020905b8154815290600101906020018083116102fb57829003601f168201915b5050505050908060020160009054906101000a900460ff16905083565b508054610341906107d0565b6000825580601f106103535750610372565b601f01602090049060005260206000209081019061037191906103fb565b5b50565b828054610381906107d0565b90600052602060002090601f0160209004810192826103a357600085556103ea565b82601f106103bc57805160ff19168380011785556103ea565b828001600101855582156103ea579182015b828111156103e95782518255916020019190600101906103ce565b5b5090506103f791906103fb565b5090565b5b808211156104145760008160009055506001016103fc565b5090565b6000604051905090565b600080fd5b600080fd5b6000819050919050565b61043f8161042c565b811461044a57600080fd5b50565b60008135905061045c81610436565b92915050565b60006020828403121561047857610477610422565b5b60006104868482850161044d565b91505092915050565b600080fd5b600080fd5b6000601f19601f8301169050919050565b7f4e487b7100000000000000000000000000000000000000000000000000000000600052604160045260246000fd5b6104e282610499565b810181811067ffffffffffffffff82111715610501576105006104aa565b5b80604052505050565b6000610514610418565b905061052082826104d9565b919050565b600067ffffffffffffffff8211156105405761053f6104aa565b5b61054982610499565b9050602081019050919050565b82818337600083830152505050565b600061057861057384610525565b61050a565b90508281526020810184848401111561059457610593610494565b5b61059f848285610556565b509392505050565b600082601f8301126105bc576105bb61048f565b5b81356105cc848260208601610565565b91505092915050565b6000602082840312156105eb576105ea610422565b5b600082013567ffffffffffffffff81111561060957610608610427565b5b610615848285016105a7565b91505092915050565b6106278161042c565b82525050565b6000602082019050610642600083018461061e565b92915050565b600081519050919050565b600082825260208201905092915050565b60005b83811015610682578082015181840152602081019050610667565b83811115610691576000848401525b50505050565b60006106a282610648565b6106ac8185610653565b93506106bc818560208601610664565b6106c581610499565b840191505092915050565b60008115159050919050565b6106e5816106d0565b82525050565b6000606082019050610700600083018661061e565b81810360208301526107128185610697565b905061072160408301846106dc565b949350505050565b7f4e487b7100000000000000000000000000000000000000000000000000000000600052601160045260246000fd5b60006107638261042c565b91507fffffffffffffffffffffffffffffffffffffffffffffffffffffffffffffffff82141561079657610795610729565b5b600182019050919050565b7f4e487b7100000000000000000000000000000000000000000000000000000000600052602260045260246000fd5b600060028204905060018216806107e857607f821691505b602082108114156107fc576107fb6107a1565b5b5091905056fea2646970667358221220c8dfd5c588ebdbbaa72bfa978218466106d6f5dc1d356e02ffe338e51383114164736f6c634300080b0033",
  "immutableReferences": {},
  "source": "// SPDX-License-Identifier: MIT\r\npragma solidity ^0.8.11;\r\n\r\ncontract TodoList {\r\n  uint256 public numberOfTasks = 0;\r\n\r\n  struct Task {\r\n    uint256 id;\r\n    string description;\r\n    bool completed;\r\n  }\r\n\r\n  mapping(uint256 => Task) public tasks;\r\n\r\n  event TaskCreated(uint256 id, string description, bool completed);\r\n\r\n  constructor() {\r\n    addTask(\"Buy milk\");  // 1\r\n  }\r\n\r\n  function addTask(string memory _description) public {\r\n    numberOfTasks++;\r\n    tasks[numberOfTasks] = Task(numberOfTasks, _description, false);\r\n    emit TaskCreated(numberOfTasks, _description, false);\r\n  }\r\n\r\n  function toggleTask(uint256 _id) external {\r\n    tasks[_id].completed = !tasks[_id].completed;\r\n  }\r\n\r\n  function deleteTask(uint256 _id) external {\r\n    delete tasks[_id];\r\n  }\r\n\r\n}",
  "sourcePath": "C:\\Users\\Suman\\Desktop\\Blockchain\\Blockchain\\Chapter-1\\Chapter-1\\Suman_Chakraborty\\Extra_Projects\\TodoList\\contracts\\TodoList.sol",
  "compiler": {
    "name": "solc",
    "version": "0.8.11+commit.d7f03943.Emscripten.clang"
  },
  "schemaVersion": "3.4.5",
  "updatedAt": "2022-02-23T08:40:07.614Z",
  "networkType": "ethereum",
  "devdoc": {
    "kind": "dev",
    "methods": {},
    "version": 1
  },
  "userdoc": {
    "kind": "user",
    "methods": {},
    "version": 1
  }
}